{
  "_format": "hh3-artifact-1",
  "contractName": "Bank",
  "sourceName": "contracts/Bank.sol",
  "abi": [
    {
      "anonymous": false,
      "inputs": [
        {
          "indexed": true,
          "internalType": "address",
          "name": "user",
          "type": "address"
        },
        {
          "indexed": false,
          "internalType": "uint256",
          "name": "amount",
          "type": "uint256"
        }
      ],
      "name": "Deposited",
      "type": "event"
    },
    {
      "anonymous": false,
      "inputs": [
        {
          "indexed": true,
          "internalType": "address",
          "name": "user",
          "type": "address"
        },
        {
          "indexed": false,
          "internalType": "uint256",
          "name": "amount",
          "type": "uint256"
        }
      ],
      "name": "Withdrawn",
      "type": "event"
    },
    {
      "inputs": [],
      "name": "deposit",
      "outputs": [],
      "stateMutability": "payable",
      "type": "function"
    },
    {
      "inputs": [],
      "name": "getContractBalance",
      "outputs": [
        {
          "internalType": "uint256",
          "name": "",
          "type": "uint256"
        }
      ],
      "stateMutability": "view",
      "type": "function"
    },
    {
      "inputs": [],
      "name": "getMyBalance",
      "outputs": [
        {
          "internalType": "uint256",
          "name": "",
          "type": "uint256"
        }
      ],
      "stateMutability": "view",
      "type": "function"
    },
    {
      "inputs": [
        {
          "internalType": "uint256",
          "name": "amount",
          "type": "uint256"
        }
      ],
      "name": "withdraw",
      "outputs": [],
      "stateMutability": "nonpayable",
      "type": "function"
    }
  ],
  "bytecode": "0x608060405234801561001057600080fd5b506106b4806100206000396000f3fe60806040526004361061003f5760003560e01c80632e1a7d4d146100445780634c7389091461006d5780636f9fb98a14610098578063d0e30db0146100c3575b600080fd5b34801561005057600080fd5b5061006b600480360381019061006691906103ef565b6100cd565b005b34801561007957600080fd5b5061008261027e565b60405161008f919061042b565b60405180910390f35b3480156100a457600080fd5b506100ad6102c4565b6040516100ba919061042b565b60405180910390f35b6100cb6102cc565b005b60008111610110576040517f08c379a0000000000000000000000000000000000000000000000000000000008152600401610107906104c9565b60405180910390fd5b806000803373ffffffffffffffffffffffffffffffffffffffff1673ffffffffffffffffffffffffffffffffffffffff168152602001908152602001600020541015610191576040517f08c379a000000000000000000000000000000000000000000000000000000000815260040161018890610535565b60405180910390fd5b806000803373ffffffffffffffffffffffffffffffffffffffff1673ffffffffffffffffffffffffffffffffffffffff16815260200190815260200160002060008282546101df9190610584565b925050819055503373ffffffffffffffffffffffffffffffffffffffff166108fc829081150290604051600060405180830381858888f1935050505015801561022c573d6000803e3d6000fd5b503373ffffffffffffffffffffffffffffffffffffffff167f7084f5476618d8e60b11ef0d7d3f06914655adb8793e28ff7f018d4c76d505d582604051610273919061042b565b60405180910390a250565b60008060003373ffffffffffffffffffffffffffffffffffffffff1673ffffffffffffffffffffffffffffffffffffffff16815260200190815260200160002054905090565b600047905090565b6000341161030f576040517f08c379a00000000000000000000000000000000000000000000000000000000081526004016103069061062a565b60405180910390fd5b346000803373ffffffffffffffffffffffffffffffffffffffff1673ffffffffffffffffffffffffffffffffffffffff168152602001908152602001600020600082825461035d919061064a565b925050819055503373ffffffffffffffffffffffffffffffffffffffff167f2da466a7b24304f47e87fa2e1e5a81b9831ce54fec19055ce277ca2f39ba42c4346040516103aa919061042b565b60405180910390a2565b600080fd5b6000819050919050565b6103cc816103b9565b81146103d757600080fd5b50565b6000813590506103e9816103c3565b92915050565b600060208284031215610405576104046103b4565b5b6000610413848285016103da565b91505092915050565b610425816103b9565b82525050565b6000602082019050610440600083018461041c565b92915050565b600082825260208201905092915050565b7f576974686472617720616d6f756e74206d75737420626520677265617465722060008201527f7468616e20300000000000000000000000000000000000000000000000000000602082015250565b60006104b3602683610446565b91506104be82610457565b604082019050919050565b600060208201905081810360008301526104e2816104a6565b9050919050565b7f496e73756666696369656e742062616c616e6365000000000000000000000000600082015250565b600061051f601483610446565b915061052a826104e9565b602082019050919050565b6000602082019050818103600083015261054e81610512565b9050919050565b7f4e487b7100000000000000000000000000000000000000000000000000000000600052601160045260246000fd5b600061058f826103b9565b915061059a836103b9565b92508282039050818111156105b2576105b1610555565b5b92915050565b7f4465706f73697420616d6f756e74206d7573742062652067726561746572207460008201527f68616e2030000000000000000000000000000000000000000000000000000000602082015250565b6000610614602583610446565b915061061f826105b8565b604082019050919050565b6000602082019050818103600083015261064381610607565b9050919050565b6000610655826103b9565b9150610660836103b9565b925082820190508082111561067857610677610555565b5b9291505056fea2646970667358221220d8981d6b31139b22949ad542dfa74265616872713f74175d1bb97fb7b00602ca64736f6c63430008140033",
  "linkReferences": {},
  "deployedLinkReferences": {},
  "immutableReferences": {},
  "inputSourceName": "project/contracts/Bank.sol",
  "buildInfoId": "solc-0_8_20-3569080e6c3298b0f0f13fd27e04e87a2c987c06"
}