{
  "_format": "hh3-artifact-1",
  "contractName": "Bank",
  "sourceName": "contracts/Bank.sol",
  "abi": [
    {
      "anonymous": false,
      "inputs": [
        {
          "indexed": true,
          "internalType": "address",
          "name": "user",
          "type": "address"
        },
        {
          "indexed": false,
          "internalType": "uint256",
          "name": "amount",
          "type": "uint256"
        }
      ],
      "name": "Deposited",
      "type": "event"
    },
    {
      "anonymous": false,
      "inputs": [
        {
          "indexed": true,
          "internalType": "address",
          "name": "from",
          "type": "address"
        },
        {
          "indexed": true,
          "internalType": "address",
          "name": "to",
          "type": "address"
        },
        {
          "indexed": false,
          "internalType": "uint256",
          "name": "amount",
          "type": "uint256"
        }
      ],
      "name": "Transferred",
      "type": "event"
    },
    {
      "anonymous": false,
      "inputs": [
        {
          "indexed": true,
          "internalType": "address",
          "name": "user",
          "type": "address"
        },
        {
          "indexed": false,
          "internalType": "uint256",
          "name": "amount",
          "type": "uint256"
        }
      ],
      "name": "Withdrawn",
      "type": "event"
    },
    {
      "inputs": [],
      "name": "deposit",
      "outputs": [],
      "stateMutability": "payable",
      "type": "function"
    },
    {
      "inputs": [],
      "name": "getContractBalance",
      "outputs": [
        {
          "internalType": "uint256",
          "name": "",
          "type": "uint256"
        }
      ],
      "stateMutability": "view",
      "type": "function"
    },
    {
      "inputs": [],
      "name": "getMyBalance",
      "outputs": [
        {
          "internalType": "uint256",
          "name": "",
          "type": "uint256"
        }
      ],
      "stateMutability": "view",
      "type": "function"
    },
    {
      "inputs": [
        {
          "internalType": "address",
          "name": "to",
          "type": "address"
        },
        {
          "internalType": "uint256",
          "name": "amount",
          "type": "uint256"
        }
      ],
      "name": "transfer",
      "outputs": [],
      "stateMutability": "nonpayable",
      "type": "function"
    },
    {
      "inputs": [
        {
          "internalType": "uint256",
          "name": "amount",
          "type": "uint256"
        }
      ],
      "name": "withdraw",
      "outputs": [],
      "stateMutability": "nonpayable",
      "type": "function"
    }
  ],
  "bytecode": "0x608060405234801561001057600080fd5b50610bca806100206000396000f3fe60806040526004361061004a5760003560e01c80632e1a7d4d1461004f5780634c738909146100785780636f9fb98a146100a3578063a9059cbb146100ce578063d0e30db0146100f7575b600080fd5b34801561005b57600080fd5b50610076600480360381019061007191906106d7565b610101565b005b34801561008457600080fd5b5061008d6102b2565b60405161009a9190610713565b60405180910390f35b3480156100af57600080fd5b506100b86102f8565b6040516100c59190610713565b60405180910390f35b3480156100da57600080fd5b506100f560048036038101906100f0919061078c565b610300565b005b6100ff6105b4565b005b60008111610144576040517f08c379a000000000000000000000000000000000000000000000000000000000815260040161013b9061084f565b60405180910390fd5b806000803373ffffffffffffffffffffffffffffffffffffffff1673ffffffffffffffffffffffffffffffffffffffff1681526020019081526020016000205410156101c5576040517f08c379a00000000000000000000000000000000000000000000000000000000081526004016101bc906108bb565b60405180910390fd5b806000803373ffffffffffffffffffffffffffffffffffffffff1673ffffffffffffffffffffffffffffffffffffffff1681526020019081526020016000206000828254610213919061090a565b925050819055503373ffffffffffffffffffffffffffffffffffffffff166108fc829081150290604051600060405180830381858888f19350505050158015610260573d6000803e3d6000fd5b503373ffffffffffffffffffffffffffffffffffffffff167f7084f5476618d8e60b11ef0d7d3f06914655adb8793e28ff7f018d4c76d505d5826040516102a79190610713565b60405180910390a250565b60008060003373ffffffffffffffffffffffffffffffffffffffff1673ffffffffffffffffffffffffffffffffffffffff16815260200190815260200160002054905090565b600047905090565b600073ffffffffffffffffffffffffffffffffffffffff168273ffffffffffffffffffffffffffffffffffffffff160361036f576040517f08c379a0000000000000000000000000000000000000000000000000000000008152600401610366906109b0565b60405180910390fd5b3373ffffffffffffffffffffffffffffffffffffffff168273ffffffffffffffffffffffffffffffffffffffff16036103dd576040517f08c379a00000000000000000000000000000000000000000000000000000000081526004016103d490610a1c565b60405180910390fd5b60008111610420576040517f08c379a000000000000000000000000000000000000000000000000000000000815260040161041790610aae565b60405180910390fd5b806000803373ffffffffffffffffffffffffffffffffffffffff1673ffffffffffffffffffffffffffffffffffffffff1681526020019081526020016000205410156104a1576040517f08c379a0000000000000000000000000000000000000000000000000000000008152600401610498906108bb565b60405180910390fd5b806000803373ffffffffffffffffffffffffffffffffffffffff1673ffffffffffffffffffffffffffffffffffffffff16815260200190815260200160002060008282546104ef919061090a565b92505081905550806000808473ffffffffffffffffffffffffffffffffffffffff1673ffffffffffffffffffffffffffffffffffffffff16815260200190815260200160002060008282546105449190610ace565b925050819055508173ffffffffffffffffffffffffffffffffffffffff163373ffffffffffffffffffffffffffffffffffffffff167fd1ba4ac2e2a11b5101f6cb4d978f514a155b421e8ec396d2d9abaf0bb02917ee836040516105a89190610713565b60405180910390a35050565b600034116105f7576040517f08c379a00000000000000000000000000000000000000000000000000000000081526004016105ee90610b74565b60405180910390fd5b346000803373ffffffffffffffffffffffffffffffffffffffff1673ffffffffffffffffffffffffffffffffffffffff16815260200190815260200160002060008282546106459190610ace565b925050819055503373ffffffffffffffffffffffffffffffffffffffff167f2da466a7b24304f47e87fa2e1e5a81b9831ce54fec19055ce277ca2f39ba42c4346040516106929190610713565b60405180910390a2565b600080fd5b6000819050919050565b6106b4816106a1565b81146106bf57600080fd5b50565b6000813590506106d1816106ab565b92915050565b6000602082840312156106ed576106ec61069c565b5b60006106fb848285016106c2565b91505092915050565b61070d816106a1565b82525050565b60006020820190506107286000830184610704565b92915050565b600073ffffffffffffffffffffffffffffffffffffffff82169050919050565b60006107598261072e565b9050919050565b6107698161074e565b811461077457600080fd5b50565b60008135905061078681610760565b92915050565b600080604083850312156107a3576107a261069c565b5b60006107b185828601610777565b92505060206107c2858286016106c2565b9150509250929050565b600082825260208201905092915050565b7f576974686472617720616d6f756e74206d75737420626520677265617465722060008201527f7468616e20300000000000000000000000000000000000000000000000000000602082015250565b60006108396026836107cc565b9150610844826107dd565b604082019050919050565b600060208201905081810360008301526108688161082c565b9050919050565b7f496e73756666696369656e742062616c616e6365000000000000000000000000600082015250565b60006108a56014836107cc565b91506108b08261086f565b602082019050919050565b600060208201905081810360008301526108d481610898565b9050919050565b7f4e487b7100000000000000000000000000000000000000000000000000000000600052601160045260246000fd5b6000610915826106a1565b9150610920836106a1565b9250828203905081811115610938576109376108db565b5b92915050565b7f43616e6e6f74207472616e7366657220746f20746865207a65726f206164647260008201527f6573730000000000000000000000000000000000000000000000000000000000602082015250565b600061099a6023836107cc565b91506109a58261093e565b604082019050919050565b600060208201905081810360008301526109c98161098d565b9050919050565b7f43616e6e6f74207472616e7366657220746f20796f757273656c660000000000600082015250565b6000610a06601b836107cc565b9150610a11826109d0565b602082019050919050565b60006020820190508181036000830152610a35816109f9565b9050919050565b7f5472616e7366657220616d6f756e74206d75737420626520677265617465722060008201527f7468616e20300000000000000000000000000000000000000000000000000000602082015250565b6000610a986026836107cc565b9150610aa382610a3c565b604082019050919050565b60006020820190508181036000830152610ac781610a8b565b9050919050565b6000610ad9826106a1565b9150610ae4836106a1565b9250828201905080821115610afc57610afb6108db565b5b92915050565b7f4465706f73697420616d6f756e74206d7573742062652067726561746572207460008201527f68616e2030000000000000000000000000000000000000000000000000000000602082015250565b6000610b5e6025836107cc565b9150610b6982610b02565b604082019050919050565b60006020820190508181036000830152610b8d81610b51565b905091905056fea26469706673582212203aefb098e2d2b2e6829300a8f7ac98783f775f56a8f8d802c767275f8f165c8f64736f6c63430008140033",
  "linkReferences": {},
  "deployedLinkReferences": {},
  "immutableReferences": {},
  "inputSourceName": "project/contracts/Bank.sol",
  "buildInfoId": "solc-0_8_20-654776032d99ddf08553197520b2529b36f6a8aa"
}